{
  "contractName": "UserStorage",
  "abi": [
    {
      "constant": false,
      "inputs": [
        {
          "internalType": "bytes32",
          "name": "_username",
          "type": "bytes32"
        }
      ],
      "name": "createUser",
      "outputs": [
        {
          "internalType": "uint256",
          "name": "",
          "type": "uint256"
        }
      ],
      "payable": false,
      "stateMutability": "nonpayable",
      "type": "function"
    },
    {
      "constant": true,
      "inputs": [
        {
          "internalType": "uint256",
          "name": "_userId",
          "type": "uint256"
        }
      ],
      "name": "getUserFromId",
      "outputs": [
        {
          "internalType": "uint256",
          "name": "",
          "type": "uint256"
        },
        {
          "internalType": "bytes32",
          "name": "",
          "type": "bytes32"
        }
      ],
      "payable": false,
      "stateMutability": "view",
      "type": "function"
    }
  ],
  "bytecode": "0x6080604052600060015534801561001557600080fd5b50610193806100256000396000f3fe608060405234801561001057600080fd5b50600436106100365760003560e01c8063abf7bfd81461003b578063be4eb0e91461007d575b600080fd5b6100676004803603602081101561005157600080fd5b81019080803590602001909291905050506100c6565b6040518082815260200191505060405180910390f35b6100a96004803603602081101561009357600080fd5b8101908080359060200190929190505050610126565b604051808381526020018281526020019250505060405180910390f35b60006001600081548092919060010191905055506040518060400160405280600154815260200183815250600080600154815260200190815260200160002060008201518160000155602082015181600101559050506001549050919050565b60008060008084815260200190815260200160002060000154600080858152602001908152602001600020600101549150915091509156fea265627a7a7231582021345c6629762500b7f793961c465b2b20b0d1fc2595a80f06a6991608495c0164736f6c63430005100032",
  "source": "pragma solidity >=0.5.0;\n\ncontract UserStorage {\n\t// Read/write candidate\n\tmapping(uint => Profile) profiles;\n\n    struct Profile {\n        uint id;\n        bytes32 username;\n    }\n\n    uint latestUserId = 0;\n\n\tfunction createUser (bytes32 _username) public returns(uint) {\n\t\tlatestUserId++;\n\n        profiles[latestUserId] = Profile(latestUserId, _username);\n\n        return latestUserId;\n\t}\n\n    function getUserFromId(uint _userId) view public returns(uint, bytes32) {\n        return (\n        profiles[_userId].id,\n        profiles[_userId].username\n        );\n    }\n}\n",
  "sourcePath": "/home/spaceman/fundium/contracts/users/UserStorage.sol",
  "compiler": {
    "name": "solc",
    "version": "0.5.16+commit.9c3226ce.Emscripten.clang"
  },
  "schemaVersion": "3.4.10",
  "updatedAt": "2022-10-10T16:00:32.095Z",
  "networkType": "ethereum",
  "devdoc": {
    "methods": {}
  },
  "userdoc": {
    "methods": {}
  }
}